{
  "_format": "hh-sol-artifact-1",
  "contractName": "CertificateVerification",
  "sourceName": "contracts/Token.sol",
  "abi": [
    {
      "inputs": [],
      "stateMutability": "nonpayable",
      "type": "constructor"
    },
    {
      "anonymous": false,
      "inputs": [
        {
          "indexed": false,
          "internalType": "string",
          "name": "certificateId",
          "type": "string"
        }
      ],
      "name": "CertificateApproved",
      "type": "event"
    },
    {
      "anonymous": false,
      "inputs": [
        {
          "indexed": false,
          "internalType": "string",
          "name": "certificateId",
          "type": "string"
        }
      ],
      "name": "CertificateRejected",
      "type": "event"
    },
    {
      "anonymous": false,
      "inputs": [
        {
          "indexed": false,
          "internalType": "string",
          "name": "certificateId",
          "type": "string"
        },
        {
          "indexed": false,
          "internalType": "string",
          "name": "name",
          "type": "string"
        },
        {
          "indexed": false,
          "internalType": "string",
          "name": "dateIssued",
          "type": "string"
        },
        {
          "indexed": false,
          "internalType": "bytes32",
          "name": "encryptedIssuerName",
          "type": "bytes32"
        }
      ],
      "name": "CertificateRequested",
      "type": "event"
    },
    {
      "anonymous": false,
      "inputs": [
        {
          "indexed": false,
          "internalType": "string",
          "name": "action",
          "type": "string"
        },
        {
          "indexed": false,
          "internalType": "string",
          "name": "certificateId",
          "type": "string"
        },
        {
          "indexed": false,
          "internalType": "string",
          "name": "performedBy",
          "type": "string"
        }
      ],
      "name": "LogAdded",
      "type": "event"
    },
    {
      "inputs": [],
      "name": "admin",
      "outputs": [
        {
          "internalType": "address",
          "name": "",
          "type": "address"
        }
      ],
      "stateMutability": "view",
      "type": "function"
    },
    {
      "inputs": [
        {
          "internalType": "string",
          "name": "certificateId",
          "type": "string"
        }
      ],
      "name": "approveCertificate",
      "outputs": [],
      "stateMutability": "nonpayable",
      "type": "function"
    },
    {
      "inputs": [
        {
          "internalType": "string",
          "name": "certificateId",
          "type": "string"
        }
      ],
      "name": "checkStatus",
      "outputs": [
        {
          "internalType": "enum CertificateVerification.Status",
          "name": "",
          "type": "uint8"
        }
      ],
      "stateMutability": "view",
      "type": "function"
    },
    {
      "inputs": [],
      "name": "fetchAllCertificates",
      "outputs": [
        {
          "internalType": "string[]",
          "name": "",
          "type": "string[]"
        },
        {
          "internalType": "string[]",
          "name": "",
          "type": "string[]"
        },
        {
          "internalType": "string[]",
          "name": "",
          "type": "string[]"
        },
        {
          "internalType": "string[]",
          "name": "",
          "type": "string[]"
        },
        {
          "internalType": "bytes32[]",
          "name": "",
          "type": "bytes32[]"
        },
        {
          "internalType": "enum CertificateVerification.Status[]",
          "name": "",
          "type": "uint8[]"
        }
      ],
      "stateMutability": "view",
      "type": "function"
    },
    {
      "inputs": [
        {
          "internalType": "string",
          "name": "name",
          "type": "string"
        },
        {
          "internalType": "string",
          "name": "certificateId",
          "type": "string"
        },
        {
          "internalType": "string",
          "name": "dateIssued",
          "type": "string"
        },
        {
          "internalType": "string",
          "name": "issuerName",
          "type": "string"
        }
      ],
      "name": "requestApproval",
      "outputs": [],
      "stateMutability": "nonpayable",
      "type": "function"
    }
  ],
  "bytecode": "0x6080604052348015600f57600080fd5b50336000806101000a81548173ffffffffffffffffffffffffffffffffffffffff021916908373ffffffffffffffffffffffffffffffffffffffff1602179055506119d78061005f6000396000f3fe608060405234801561001057600080fd5b50600436106100575760003560e01c80632f060da71461005c57806344b0a9951461007857806396260cdd146100a8578063c1fe3b7a146100cb578063f851a440146100e7575b600080fd5b61007660048036038101906100719190610e98565b610105565b005b610092600480360381019061008d9190610f6f565b61042f565b60405161009f919061102f565b60405180910390f35b6100b06104bf565b6040516100c296959493929190611311565b60405180910390f35b6100e560048036038101906100e09190610f6f565b610ae4565b005b6100ef610cea565b6040516100fc91906113dd565b60405180910390f35b60006001846040516101179190611434565b908152602001604051809103902090506000600281111561013b5761013a610fb8565b5b600281111561014d5761014c610fb8565b5b8160050160009054906101000a900460ff16600281111561017157610170610fb8565b5b146101b1576040517f08c379a00000000000000000000000000000000000000000000000000000000081526004016101a8906114a8565b60405180910390fd5b60006101bc83610d0e565b90506040518060c00160405280878152602001868152602001858152602001848152602001828152602001600060028111156101fb576101fa610fb8565b5b81525060018660405161020e9190611434565b9081526020016040518091039020600082015181600001908161023191906116de565b50602082015181600101908161024791906116de565b50604082015181600201908161025d91906116de565b50606082015181600301908161027391906116de565b506080820151816004015560a08201518160050160006101000a81548160ff021916908360028111156102a9576102a8610fb8565b5b02179055509050506002859080600181540180825580915050600190039060005260206000200160009091909190915090816102e591906116de565b50600360405180608001604052804281526020018781526020016040518060400160405280601081526020017f5265717565737420417070726f76616c0000000000000000000000000000000081525081526020016040518060400160405280600a81526020017f556e69766572736974790000000000000000000000000000000000000000000081525081525090806001815401808255809150506001900390600052602060002090600402016000909190919091506000820151816000015560208201518160010190816103bb91906116de565b5060408201518160020190816103d191906116de565b5060608201518160030190816103e791906116de565b5050507f865bd7f6351ed1ca9d0dd027043d777b5e1b4dc3593a77fc8815b8a5931cc8f08587868460405161041f94939291906117f8565b60405180910390a1505050505050565b6000806001836040516104429190611434565b908152602001604051809103902090506000816001018054610463906114f7565b9050036104a5576040517f08c379a000000000000000000000000000000000000000000000000000000000815260040161049c9061189e565b60405180910390fd5b8060050160009054906101000a900460ff16915050919050565b6060806060806060806000600280549050905060008167ffffffffffffffff8111156104ee576104ed610d6d565b5b60405190808252806020026020018201604052801561052157816020015b606081526020019060019003908161050c5790505b50905060008267ffffffffffffffff8111156105405761053f610d6d565b5b60405190808252806020026020018201604052801561057357816020015b606081526020019060019003908161055e5790505b50905060008367ffffffffffffffff81111561059257610591610d6d565b5b6040519080825280602002602001820160405280156105c557816020015b60608152602001906001900390816105b05790505b50905060008467ffffffffffffffff8111156105e4576105e3610d6d565b5b60405190808252806020026020018201604052801561061757816020015b60608152602001906001900390816106025790505b50905060008567ffffffffffffffff81111561063657610635610d6d565b5b6040519080825280602002602001820160405280156106645781602001602082028036833780820191505090505b50905060008667ffffffffffffffff81111561068357610682610d6d565b5b6040519080825280602002602001820160405280156106b15781602001602082028036833780820191505090505b50905060005b87811015610ac2576000600282815481106106d5576106d46118be565b5b9060005260206000200180546106ea906114f7565b80601f0160208091040260200160405190810160405280929190818152602001828054610716906114f7565b80156107635780601f1061073857610100808354040283529160200191610763565b820191906000526020600020905b81548152906001019060200180831161074657829003601f168201915b50505050509050600060018260405161077c9190611434565b9081526020016040518091039020905080600001805461079b906114f7565b80601f01602080910402602001604051908101604052809291908181526020018280546107c7906114f7565b80156108145780601f106107e957610100808354040283529160200191610814565b820191906000526020600020905b8154815290600101906020018083116107f757829003601f168201915b505050505089848151811061082c5761082b6118be565b5b6020026020010181905250806001018054610846906114f7565b80601f0160208091040260200160405190810160405280929190818152602001828054610872906114f7565b80156108bf5780601f10610894576101008083540402835291602001916108bf565b820191906000526020600020905b8154815290600101906020018083116108a257829003601f168201915b50505050508884815181106108d7576108d66118be565b5b60200260200101819052508060020180546108f1906114f7565b80601f016020809104026020016040519081016040528092919081815260200182805461091d906114f7565b801561096a5780601f1061093f5761010080835404028352916020019161096a565b820191906000526020600020905b81548152906001019060200180831161094d57829003601f168201915b5050505050878481518110610982576109816118be565b5b602002602001018190525080600301805461099c906114f7565b80601f01602080910402602001604051908101604052809291908181526020018280546109c8906114f7565b8015610a155780601f106109ea57610100808354040283529160200191610a15565b820191906000526020600020905b8154815290600101906020018083116109f857829003601f168201915b5050505050868481518110610a2d57610a2c6118be565b5b60200260200101819052508060040154858481518110610a5057610a4f6118be565b5b6020026020010181815250508060050160009054906101000a900460ff16848481518110610a8157610a806118be565b5b60200260200101906002811115610a9b57610a9a610fb8565b5b90816002811115610aaf57610aae610fb8565b5b81525050505080806001019150506106b7565b508585858585859c509c509c509c509c509c5050505050505050909192939495565b6000600182604051610af69190611434565b9081526020016040518091039020905060006002811115610b1a57610b19610fb8565b5b8160050160009054906101000a900460ff166002811115610b3e57610b3d610fb8565b5b14610b7e576040517f08c379a0000000000000000000000000000000000000000000000000000000008152600401610b759061195f565b60405180910390fd5b60018160050160006101000a81548160ff02191690836002811115610ba657610ba5610fb8565b5b0217905550600360405180608001604052804281526020018481526020016040518060400160405280601381526020017f417070726f76652043657274696669636174650000000000000000000000000081525081526020016040518060400160405280600581526020017f41646d696e0000000000000000000000000000000000000000000000000000008152508152509080600181540180825580915050600190039060005260206000209060040201600090919091909150600082015181600001556020820151816001019081610c8091906116de565b506040820151816002019081610c9691906116de565b506060820151816003019081610cac91906116de565b5050507f5b3a91116c0092d12f9791b22f8d88333b585fc89ffdfe35106e6ed78afb04b182604051610cde919061197f565b60405180910390a15050565b60008054906101000a900473ffffffffffffffffffffffffffffffffffffffff1681565b600081604051602001610d219190611434565b604051602081830303815290604052805190602001209050919050565b6000604051905090565b600080fd5b600080fd5b600080fd5b600080fd5b6000601f19601f8301169050919050565b7f4e487b7100000000000000000000000000000000000000000000000000000000600052604160045260246000fd5b610da582610d5c565b810181811067ffffffffffffffff82111715610dc457610dc3610d6d565b5b80604052505050565b6000610dd7610d3e565b9050610de38282610d9c565b919050565b600067ffffffffffffffff821115610e0357610e02610d6d565b5b610e0c82610d5c565b9050602081019050919050565b82818337600083830152505050565b6000610e3b610e3684610de8565b610dcd565b905082815260208101848484011115610e5757610e56610d57565b5b610e62848285610e19565b509392505050565b600082601f830112610e7f57610e7e610d52565b5b8135610e8f848260208601610e28565b91505092915050565b60008060008060808587031215610eb257610eb1610d48565b5b600085013567ffffffffffffffff811115610ed057610ecf610d4d565b5b610edc87828801610e6a565b945050602085013567ffffffffffffffff811115610efd57610efc610d4d565b5b610f0987828801610e6a565b935050604085013567ffffffffffffffff811115610f2a57610f29610d4d565b5b610f3687828801610e6a565b925050606085013567ffffffffffffffff811115610f5757610f56610d4d565b5b610f6387828801610e6a565b91505092959194509250565b600060208284031215610f8557610f84610d48565b5b600082013567ffffffffffffffff811115610fa357610fa2610d4d565b5b610faf84828501610e6a565b91505092915050565b7f4e487b7100000000000000000000000000000000000000000000000000000000600052602160045260246000fd5b60038110610ff857610ff7610fb8565b5b50565b600081905061100982610fe7565b919050565b600061101982610ffb565b9050919050565b6110298161100e565b82525050565b60006020820190506110446000830184611020565b92915050565b600081519050919050565b600082825260208201905092915050565b6000819050602082019050919050565b600081519050919050565b600082825260208201905092915050565b60005b838110156110b0578082015181840152602081019050611095565b60008484015250505050565b60006110c782611076565b6110d18185611081565b93506110e1818560208601611092565b6110ea81610d5c565b840191505092915050565b600061110183836110bc565b905092915050565b6000602082019050919050565b60006111218261104a565b61112b8185611055565b93508360208202850161113d85611066565b8060005b85811015611179578484038952815161115a85826110f5565b945061116583611109565b925060208a01995050600181019050611141565b50829750879550505050505092915050565b600081519050919050565b600082825260208201905092915050565b6000819050602082019050919050565b6000819050919050565b6111ca816111b7565b82525050565b60006111dc83836111c1565b60208301905092915050565b6000602082019050919050565b60006112008261118b565b61120a8185611196565b9350611215836111a7565b8060005b8381101561124657815161122d88826111d0565b9750611238836111e8565b925050600181019050611219565b5085935050505092915050565b600081519050919050565b600082825260208201905092915050565b6000819050602082019050919050565b6112888161100e565b82525050565b600061129a838361127f565b60208301905092915050565b6000602082019050919050565b60006112be82611253565b6112c8818561125e565b93506112d38361126f565b8060005b838110156113045781516112eb888261128e565b97506112f6836112a6565b9250506001810190506112d7565b5085935050505092915050565b600060c082019050818103600083015261132b8189611116565b9050818103602083015261133f8188611116565b905081810360408301526113538187611116565b905081810360608301526113678186611116565b9050818103608083015261137b81856111f5565b905081810360a083015261138f81846112b3565b9050979650505050505050565b600073ffffffffffffffffffffffffffffffffffffffff82169050919050565b60006113c78261139c565b9050919050565b6113d7816113bc565b82525050565b60006020820190506113f260008301846113ce565b92915050565b600081905092915050565b600061140e82611076565b61141881856113f8565b9350611428818560208601611092565b80840191505092915050565b60006114408284611403565b915081905092915050565b600082825260208201905092915050565b7f436572746966696361746520616c726561647920657869737473000000000000600082015250565b6000611492601a8361144b565b915061149d8261145c565b602082019050919050565b600060208201905081810360008301526114c181611485565b9050919050565b7f4e487b7100000000000000000000000000000000000000000000000000000000600052602260045260246000fd5b6000600282049050600182168061150f57607f821691505b602082108103611522576115216114c8565b5b50919050565b60008190508160005260206000209050919050565b60006020601f8301049050919050565b600082821b905092915050565b60006008830261158a7fffffffffffffffffffffffffffffffffffffffffffffffffffffffffffffffff8261154d565b611594868361154d565b95508019841693508086168417925050509392505050565b6000819050919050565b6000819050919050565b60006115db6115d66115d1846115ac565b6115b6565b6115ac565b9050919050565b6000819050919050565b6115f5836115c0565b611609611601826115e2565b84845461155a565b825550505050565b600090565b61161e611611565b6116298184846115ec565b505050565b5b8181101561164d57611642600082611616565b60018101905061162f565b5050565b601f8211156116925761166381611528565b61166c8461153d565b8101602085101561167b578190505b61168f6116878561153d565b83018261162e565b50505b505050565b600082821c905092915050565b60006116b560001984600802611697565b1980831691505092915050565b60006116ce83836116a4565b9150826002028217905092915050565b6116e782611076565b67ffffffffffffffff811115611700576116ff610d6d565b5b61170a82546114f7565b611715828285611651565b600060209050601f8311600181146117485760008415611736578287015190505b61174085826116c2565b8655506117a8565b601f19841661175686611528565b60005b8281101561177e57848901518255600182019150602085019450602081019050611759565b8683101561179b5784890151611797601f8916826116a4565b8355505b6001600288020188555050505b505050505050565b60006117bb82611076565b6117c5818561144b565b93506117d5818560208601611092565b6117de81610d5c565b840191505092915050565b6117f2816111b7565b82525050565b6000608082019050818103600083015261181281876117b0565b9050818103602083015261182681866117b0565b9050818103604083015261183a81856117b0565b905061184960608301846117e9565b95945050505050565b7f436572746966696361746520646f6573206e6f74206578697374000000000000600082015250565b6000611888601a8361144b565b915061189382611852565b602082019050919050565b600060208201905081810360008301526118b78161187b565b9050919050565b7f4e487b7100000000000000000000000000000000000000000000000000000000600052603260045260246000fd5b7f4365727469666963617465206973206e6f7420696e2070656e64696e6720737460008201527f6174757300000000000000000000000000000000000000000000000000000000602082015250565b600061194960248361144b565b9150611954826118ed565b604082019050919050565b600060208201905081810360008301526119788161193c565b9050919050565b6000602082019050818103600083015261199981846117b0565b90509291505056fea2646970667358221220fbaf45eddd40c78b6f81d6e38f7c98c0bc25bd765dd5ca8a595955c3b8fcd88364736f6c634300081b0033",
  "linkReferences": {},
  "deployedLinkReferences": {}
}